:100000000C942A000C943F000C943F000C943F0089
:100010000C943F000C943F000C943F000C943F0064
:100020000C943F000C943F000C943F000C943F0054
:100030000C943F000C943F000C943F000C943F0044
:100040000C943F000C943F000C943F000C943F0034
:100050000C943F0011241FBECFE5D8E0DEBFCDBF1A
:1000600010E0A0E6B0E0EAE6F3E002C005900D92F1
:10007000A237B107D9F70E946E010C94B3010C941A
:1000800000002FEF89E698E1215080409040E1F791
:1000900000C000008C9A94988FE39CE90197F1F7D7
:1000A00000C000008C988499FECF849BFECF849979
:1000B000FECF08958C9828E080E0849BFECF98E4E2
:1000C0009A95F1F790B392959170880F892B849946
:1000D000FECF215091F708959F92AF92BF92CF9299
:1000E000DF92EF92FF920F931F93CF93DF93CDB7E1
:1000F000DEB764970FB6F894DEBF0FBECDBF0E9487
:1001000041000E945A00C82E0E945A00D82E0E9418
:100110005A00E82E0E945A00082F0E945A00982E7A
:10012000F12C4AE050E0BE016F5F7F4FC7010E9493
:10013000730110E04AE050E0BE016A5F7F4FC801E2
:100140000E947301AC2CB12C4AE050E0BE01655F07
:100150007F4FC5010E947301CD2CD12C4AE050E0A5
:10016000BE01605F7F4FC6010E947301892D90E040
:10017000CA0CDB1CEC0CFD1C0E0D1F1D801791071B
:1001800069F50E94670180E690E00E944501CE017A
:1001900001960E9445018EE20E943301CE0106962F
:1001A0000E9445018FED0E94330187E690E00E9496
:1001B000450180EC0E940C0189E690E00E94450117
:1001C000CE010B960E9445018EE20E943301CE01C2
:1001D00040960E94450185E20E9433018FE19EE432
:1001E0000197F1F700C0000064960FB6F894DEBFE7
:1001F0000FBECDBFDF91CF911F910F91FF90EF9078
:10020000DF90CF90BF90AF909F9008958FEF8ABB03
:1002100081B3806E81BB08958BBB95989698979A11
:100220008FEC97E00197F1F700C0000097988FE9F5
:100230009FE00197F1F700C0000008950E940601B9
:100240008FE295E70197F1F700C0000088E30E9474
:100250000C018EE00E940C0181E00E940C0182E002
:100260000E940C0108958BBB959A9698979A8FECF3
:1002700097E00197F1F700C0000097988FE99FE0A1
:100280000197F1F700C000000895EF92FF920F93DD
:100290001F93CF93DF938C017C01C0E0D0E006C0B8
:1002A000F70181917F010E9433012196F8010190AD
:1002B0000020E9F73197E01BF10BCE17DF0780F341
:1002C000DF91CF911F910F91FF90EF90089581E002
:1002D0000E940C0182E00E940C0108950E941E0100
:1002E0000E946C00FDCF4532510520F4423010F0E1
:1002F0000C947E01FB011082CB010895BB274A308C
:1003000031F4992322F4BDE2909581959F4F0C948E
:100310008A01BB27FB015527AA27880F991FAA1F0F
:10032000A41710F0A41B83955051B9F7A05DAA3310
:1003300008F0A95DA193009779F7B111B1931192DB
:10034000CB010C94A301DC01FC01672F7191772391
:10035000E1F7329704C07C916D9370836291AE1780
:0A036000BF07C8F30895F894FFCF1B
:10036A0054656D703A2000430068756D69643A20DF
:02037A00000081
:00000001FF
